:020000040800F2
:1000000000000220911D0008B1060008B306000898
:10001000B5060008B7060008B90600080000000091
:100020000000000000000000000000006113000854
:10003000BB0600080000000001140008BD0600080F
:10004000E11D0008E11D0008E11D0008E11D000898
:10005000E11D0008E11D0008E11D0008E11D000888
:10006000E11D0008E11D0008E11D0008E11D000878
:10007000E11D0008E11D0008E11D0008E11D000868
:10008000E11D0008E11D0008E11D0008E11D000858
:10009000E11D0008E11D0008E11D0008E11D000848
:1000A000E11D0008E11D0008E11D0008E11D000838
:1000B000E11D0008E11D0008E11D0008E11D000828
:1000C000E11D0008E11D0008E11D0008E11D000818
:1000D000E11D0008E11D0008E11D0008E11D000808
:1000E000E11D0008E11D0008E11D0008E11D0008F8
:1000F000E11D0008E11D0008E11D0008E11D0008E8
:10010000E11D0008E11D0008E11D0008E11D0008D7
:10011000E11D0008E11D0008E11D0008E11D0008C7
:10012000E11D0008E11D0008E11D0008E11D0008B7
:10013000E11D00080000000000000000E11D0008B3
:10014000E11D0008E11D0008E11D0008E11D000897
:10015000E11D0008E11D0008E11D0008E11D000887
:10016000E11D0008E11D0008E11D0008E11D000877
:10017000E11D0008E11D0008000000000000000073
:08018000E11D0008E11D00086B
:1001900010B5054C237833B9044B13B10448AFF3C1
:1001A00000800123237010BD10000020000000001B
:1001B0002C1E000808B5034B1BB103490348AFF3DD
:1001C000008008BD00000000140000202C1E000864
:1001D00053B94AB9002908BF00281CBF4FF0FF31AE
:1001E0004FF0FF3000F072B9ADF1080C6DE904CEAC
:1001F00000F006F8DDF804E0DDE9022304B0704702
:100200002DE9F047089E04468846002B4BD18A42D0
:10021000154667D9B2FA82F24AB1C2F1200701FA53
:1002200002F320FA07F7954047EA030894404FEAA3
:10023000154E230CB8FBFEF71FFA85FC0EFB178842
:1002400043EA084307FB0CF1994209D9EB1807F17F
:10025000FF3080F01B81994240F21881023F2B440D
:100260005B1AA4B2B3FBFEF00EFB103344EA034466
:1002700000FB0CFCA44509D92C1900F1FF3380F0D8
:100280000781A44540F2048102382C4440EA07402B
:10029000A4EB0C0400271EB1D4400023C6E90043A0
:1002A0003946BDE8F0878B4209D9002E00F0EB807B
:1002B0000027C6E9000138463946BDE8F087B3FAA1
:1002C00083F7002F47D18B4202D3824200F2FA809B
:1002D000841A61EB030301209846002EE0D0C6E9A2
:1002E0000048DDE702B9FFDEB2FA82F2002A40F0F0
:1002F0008F80491B4FEA154E1FFA85F80127B1FB85
:10030000FEFC230C0EFB1C1143EA014308FB0CF11D
:10031000994207D9EB180CF1FF3002D2994200F252
:10032000CD808446591AA3B2B1FBFEF00EFB101427
:1003300043EA044408FB00F8A04507D92C1900F152
:10034000FF3302D2A04500F2B6801846A4EB0804A1
:1003500040EA0C409FE7C7F1200CBB4022FA0CFE9C
:100360004EEA030E01FA07F420FA0CF521FA0CF319
:100370004FEA1E482543B3FBF8F92C0C08FB193350
:100380001FFA8EFA44EA034309FB0AF49C4202FA7C
:1003900007F200FA07F10BD91EEB030309F1FF3056
:1003A00080F087809C4240F28480A9F10209734466
:1003B0001B1BADB2B3FBF8F008FB103345EA034456
:1003C00000FB0AFAA24508D91EEB040400F1FF3332
:1003D0006BD2A24569D90238744440EA0940A0FBB7
:1003E0000289A4EB0A044C45C2464B4654D351D073
:1003F000002E69D0B1EB0A0564EB030404FA0CFC8F
:10040000FD40FC404CEA0505C6E90054002747E7DB
:10041000C2F1200320FA03F7954001FA02F021FA15
:1004200003F34FEA154E3843010CB3FBFEF71FFAF6
:1004300085F80EFB173341EA034107FB08F38B42B3
:1004400004FA02F407D9691807F1FF3C2FD28B4256
:100450002DD9023F2944CB1A81B2B3FBFEF00EFB2B
:10046000103341EA034100FB08F38B4207D96918B6
:1004700000F1FF3C17D28B4215D902382944C91A22
:1004800040EA07473BE73746304609E70746E7E6D5
:100490001846FBE64145ABD2B8EB020A69EB0E0207
:1004A00001381346A4E76046E9E7184695E7674632
:1004B000D1E781467CE702382C4447E7ACF1020CD7
:1004C0002B442FE7384608E73746E9E6704700BF78
:1004D000FEE7000000B595B0002101912B4B1A6C8E
:1004E00042F080521A641B6C03F080530193019B0D
:1004F0000291274B1A6842F480421A601B6803F489
:1005000080430293029B012308934FF480330993A5
:1005100002230E934FF480020F92192210924FF48F
:10052000A872119212930423139308A800F016F9ED
:1005300020BB0F23039302230493002305934FF45E
:10054000A05306934FF480530793052103A800F0AE
:1005500025FBB8B900F0CEFB0E4BA3FB00308009A1
:1005600000F0F8FC042000F00BFD00220F214FF0FA
:10057000FF3000F0BBFC15B05DF804FBA22106487B
:10058000FFF7A6FFB0210448FFF7A2FF00380240A2
:1005900000700040D34D6210581E000808B500F0EE
:1005A00025FDFFF797FF00F005F800F06DF801F06A
:1005B000BEFBFEE770B58AB0002400942A4B1A6B8C
:1005C00042F004021A631A6B02F004020092009ACD
:1005D00001941A6B42F080021A631A6B02F08002D7
:1005E0000192019A02941A6B42F001021A631A6B8B
:1005F00002F001020292029A03941A6B42F0020284
:100600001A631A6B02F002020392039A04941A6BA3
:1006100042F008021A631B6B03F008030493049B67
:100620004FF6FF76059603250695079405A90F4812
:1006300000F066FB49F6FF7305930695079405A93C
:100640000B4800F05DFB05960695079405A909483F
:1006500000F056FB042305930695079405A9064868
:1006600000F04EFB0AB070BD0038024000080240A6
:100670000000024000040240000C024008B50120C6
:1006800001F074FBFBE7000030B587B001AC064D0C
:100690000FCD0FC42B682360002101A801F04CFB93
:1006A000024B186007B030BD441E0008783D0020A2
:1006B0007047FEE7FEE7FEE7FEE7704708B500F08B
:1006C000AFFC01F05CFB08BD10B582B000240094C3
:1006D000214B5A6C42F480425A645A6C02F48042B4
:1006E0000092009A01941A6C42F080521A641B6CBA
:1006F00003F080530193019B032000F0E5FB2246A9
:1007000021466FF00B0000F0F1FB224621466FF00E
:100710000A0000F0EBFB224621466FF0090000F0D2
:10072000E5FB224621466FF0040000F0DFFB224685
:1007300021466FF0030000F0D9FB22460F216FF035
:10074000010000F0D3FB22460F214FF0FF3000F0F4
:10075000CDFB02B010BD00BF00380240002800F001
:10076000BB8170B582B00446036813F0010F3BD023
:10077000A74B9B6803F00C03042B2CD0A44B9B6865
:1007800003F00C03082B21D06368B3F5803F4FD0F2
:10079000B3F5A02F52D09E4B1A6822F480321A6013
:1007A0001A6822F480221A606368002B50D000F08F
:1007B00043FC0546964B1B6813F4003F14D100F030
:1007C0003BFC401B6428F5D903208AE1904B5B6811
:1007D00013F4800FD8D08E4B1B6813F4003F03D066
:1007E0006368002B00F07A81236813F0020F55D064
:1007F000874B9B6813F00C0F3ED0854B9B6803F032
:100800000C03082B33D0E368002B68D0814B012206
:100810001A6000F011FC05467D4B1B6813F0020FB7
:1008200054D100F009FC401B0228F5D9032058E1FF
:10083000774A136843F480331360B5E7744B1A6842
:1008400042F480221A601A6842F480321A60ABE7E0
:1008500000F0F2FB05466E4B1B6813F4003FC3D05B
:1008600000F0EAFB401B6428F5D9032039E1684B0E
:100870005B6813F4800FC6D1654B1B6813F0020F41
:1008800004D0E368012B01D001202AE1604A1368FB
:1008900023F0F803216943EAC1031360236813F0CE
:1008A000080F40D0636963B35B4B01221A6000F00C
:1008B000C3FB0546564B5B6F13F0020F33D100F0BC
:1008C000BBFB401B0228F5D903200AE1504A1368FC
:1008D00023F0F803216943EAC1031360DEE74D4BBF
:1008E00000221A6000F0A8FB0546494B1B6813F074
:1008F000020FD3D000F0A0FB401B0228F5D9032043
:10090000EFE0454B00221A6000F096FB0546404B95
:100910005B6F13F0020F06D000F08EFB401B022825
:10092000F5D90320DDE0236813F0040F79D0384BAC
:100930001B6C13F0805F33D100230193344B1A6C8E
:1009400042F080521A641B6C03F080530193019BA8
:100950000125324B1B6813F4807F23D0A368012B41
:1009600034D0052B38D02A4B1A6F22F001021A67B7
:100970001A6F22F004021A67A368002B36D000F029
:100980005BFB0646224B1B6F13F0020F48D100F0B1
:1009900053FB801B41F288339842F3D90320A0E037
:1009A0000025D6E71D4A136843F48073136000F0F6
:1009B00043FB0646194B1B6813F4807FCED100F031
:1009C0003BFB801B0228F5D903208AE0104A136FF5
:1009D00043F001031367CFE70D4B1A6F42F0040297
:1009E0001A671A6F42F001021A67C5E700F024FB8C
:1009F0000646074B1B6F13F0020F11D000F01CFBD3
:100A0000801B41F288339842F3D9032069E000BF8C
:100A10000038024000004742800E4742007000400C
:100A2000E5B9A369002B5BD0304A926802F00C0252
:100A3000082A58D0022B17D02D4B00221A6000F044
:100A4000FBFA0446294B1B6813F0007F42D000F0EC
:100A5000F3FA001B0228F5D9032042E0234A136C65
:100A600023F080531364DCE7214B00221A6000F06E
:100A7000E3FA05461D4B1B6813F0007F06D000F01B
:100A8000DBFA401B0228F5D903202AE0E369226A39
:100A90001343626A43EA8213A26A5208013A43EAA4
:100AA0000243E26A43EA0263104A5360104B012298
:100AB0001A6000F0C1FA04460C4B1B6813F0007F6B
:100AC00006D100F0B9FA001B0228F5D9032008E08E
:100AD000002006E0002004E001207047012000E033
:100AE000002002B070BD0120FBE700BF00380240CB
:100AF00060004742264B9B6803F00C03042B44D054
:100B0000082B01D0234870472DE9F04B204B5A6841
:100B100002F03F025B6813F4800F13D01C4B59683E
:100B2000C1F3881100231C48A1FB0001FFF750FB13
:100B3000174B5B68C3F3014301335B00B0FBF3F079
:100B4000BDE8F08B124B5B68C3F388131E46002789
:100B50005C010025E41A65EB0705A90141EA9461EF
:100B6000A001001B61EB0501CB0043EA5073C400F8
:100B7000A01943EB07018B0243EA905384022046FD
:100B800019460023FFF724FBD2E70348704700BF54
:100B9000003802400024F40040787D01002800F075
:100BA0009D8070B504464F4B1B6803F00F038B42CA
:100BB00009D2CBB24B4A1370136803F00F038B4278
:100BC00001D0012070BD236813F0020F17D013F07D
:100BD000040F04D0444A936843F4E05393602368BD
:100BE00013F0080F04D0404A936843F460439360C5
:100BF0003D4A936823F0F003A068034393600D46D9
:100C0000236813F0010F32D06368012B21D09A1EA4
:100C1000012A25D9344A126812F0020F60D03249F5
:100C20008A6822F0030213438B6000F005FA06463F
:100C30002D4B9B6803F00C036268B3EB820F16D058
:100C400000F0FAF9801B41F288339842F0D9032072
:100C5000B8E7254A126812F4003FE0D10120B1E75D
:100C6000214A126812F0007FD9D10120AAE71D4B5A
:100C70001B6803F00F03AB4209D9EAB2194B1A7093
:100C80001B6803F00F03AB4201D001209AE72368F1
:100C900013F0040F06D0144A936823F4E053E1687C
:100CA0000B439360236813F0080F07D00E4A936834
:100CB00023F46043216943EAC1039360FFF71AFFFD
:100CC000094B9B68C3F30313084AD35CD840084B15
:100CD00018600F2000F064F9002073E701207047CE
:100CE00001206FE7003C024000380240701E0008FF
:100CF00008000020014B1868704700BF0800002062
:100D000000230F2B00F2D780F0B482B039E0072225
:100D100000E00022B2403A430234674E46F82420F5
:100D2000664A1468EA4302EA04064F6817F4803FF3
:100D300001D045EA0406614C2660646802EA0406B4
:100D40004F6817F4003F01D045EA04065B4C66602B
:100D5000A46802EA04064F6817F4801F01D045EA30
:100D60000406564CA660E46822404E6816F4001F44
:100D700001D045EA0402514CE26001330F2B00F22E
:100D8000978001229A400C6804EA0205AA42F4D135
:100D90004C68022C01D0122C10D1DE08083650F815
:100DA00026C003F00704A7000F24BC402CEA040C63
:100DB0000C69BC4044EA0C0440F8264004685F001B
:100DC0000326BE40F64306EA040C4C6804F0030414
:100DD000BC4044EA0C0404604C6804F1FF3CBCF1E4
:100DE000010F03D9112C01D0122C10D1846806EA0E
:100DF000040CCC68BC4044EA0C048460446824EAD7
:100E000002024C68C4F300149C4014434460C2685E
:100E100016408A68BA403243C2604A6812F0805F66
:100E2000ABD000220192264A546C44F480445464AE
:100E3000526C02F480420192019A9C08A61C1E4A40
:100E400052F8267003F0030296000F22B24027EA00
:100E500002071C4A90423FF45CAF02F58062904268
:100E60001AD002F58062904218D002F5806290425A
:100E700016D002F58062904214D002F58062904252
:100E800012D002F58062904210D002F5806290424A
:100E90003FF43DAF08223DE701223BE7022239E75C
:100EA000032237E7042235E7052233E7062231E73C
:100EB00002B0F0BC7047704700380140003C014070
:100EC0000038024000000240074AD36823F4E06380
:100ED0001B041B0C000200F4E060184340F0BF60EC
:100EE00040F40030D060704700ED00E030B4174BA4
:100EF000DB68C3F30223C3F10704042C28BF0424D6
:100F00001D1D062D18D9033B4FF0FF3505FA04F4DB
:100F100021EA0401994005FA03F322EA0303194385
:100F200000280BDB0901C9B200F1604000F5614007
:100F300080F8001330BC70470023E5E700F00F0095
:100F40000901C9B2024B1954F4E700BF00ED00E0FB
:100F500014ED00E00138B0F1807F0AD2064B5860F2
:100F6000064AF02182F823100020986007221A60B8
:100F700070470120704700BF10E000E000ED00E086
:100F8000042805D0054A136823F004031360704752
:100F9000024A136843F004031360704710E000E056
:100FA00010B504460E4B18784FF47A73B3FBF0F388
:100FB0000C4A1068B0FBF3F0FFF7CCFF68B90F2CB8
:100FC00001D901200AE0002221464FF0FF30FFF74F
:100FD0008DFF054B1C60002000E0012010BD00BF0C
:100FE00000000020080000200400002008B50B4B82
:100FF0001A6842F400721A601A6842F480621A6039
:101000001A6842F480721A600320FFF75DFF0F2018
:10101000FFF7C6FFFFF758FB002008BD003C024069
:10102000034A1168034B1B780B441360704700BFE1
:101030007C3D002000000020014B1868704700BF75
:101040007C3D00200F49D1F8883043F47003C1F88B
:1010500088300D4B1A6842F001021A600020986037
:101060001A6822F0847222F480321A60074A5A60A9
:101070001A6822F480221A60D8604FF000638B60F7
:10108000704700BF00ED00E000380240103000243F
:10109000124A12F0070F1ED0D11D21F00701C1F531
:1010A000705313440A460E48026000214160134405
:1010B000083B23F007030B48036059601960991A35
:1010C00051601360084B1960084B1960084B4FF0D2
:1010D00000421A6070474FF47053E4E7300000207C
:1010E0003C3C00202C000020383C0020343C0020F8
:1010F000303C002010B4134B1A6882421BD359684D
:101100005C18844203D14068014459601846416824
:101110004418A24213D10C4C2468A2420DD052684C
:10112000114441601A6812680260984200D0186049
:101130005DF8044B70471346DEE70460F5E7026094
:10114000F3E700BF3C3C00202C00002070B50446B3
:1011500000F0CEFB3A4B1B68BBB13A4B1B681C42FC
:1011600063D1ACB1083414F0070F11D024F0070498
:10117000083404F007035BB14FF0500383F3118888
:10118000BFF36F8FBFF34F8FFEE7FFF781FFE4E7F9
:10119000002C4CD02C4B1B68A3424AD32B4B1D6810
:1011A00001E02B4615466A68A24202D22A68002A4C
:1011B000F7D1234A1268AA423DD01E6808362A6831
:1011C0001A606B681B1B102B10D9281910F0070F21
:1011D00008D04FF0500383F31188BFF36F8FBFF334
:1011E0004F8FFEE743606C60FFF784FF6A68164923
:1011F0000B689B1A0B60164909688B4201D214498F
:101200000B60104B1B6813436B6000232B6000F0D6
:1012100003FC16F0070F10D04FF0500383F3118832
:10122000BFF36F8FBFF34F8FFEE70026EFE7002677
:10123000EDE70026EBE70026E9E7304670BD00BF8A
:101240002C000020303C0020343C00203C3C00209E
:10125000383C002080B338B50446A0F1080550F8AA
:10126000042C164909680A4208D14FF0500383F351
:101270001188BFF36F8FBFF34F8FFEE750F8080C54
:1012800040B14FF0500383F31188BFF36F8FBFF36A
:101290004F8FFEE722EA010244F8042C00F028FBFD
:1012A00054F8041C064A13680B4413602846FFF7E1
:1012B00021FF00F0B1FB38BD704700BF303C00207B
:1012C000343C00200B4B1B68B3F1FF3F08D04FF0BC
:1012D000500383F31188BFF36F8FBFF34F8FFEE787
:1012E0004FF0500383F31188BFF36F8FBFF34F8F1D
:1012F000FEE700BF0C00002006480068006880F38D
:10130000088862B661B6BFF34F8FBFF36F8F00DFFF
:1013100000BF000008ED00E0DFF80C00016841F4B8
:10132000700101607047000088ED00E04FF08073AD
:1013300040F8043C21F0010140F8081C054B40F83E
:101340000C3C40F8202C6FF0020340F8243C443859
:10135000704700BFC5120008000000000000000038
:10136000074B19680868B0E8F04F80F30988BFF3AD
:101370006F8F4FF0000080F311887047AFF300804B
:101380004C3C00204FF0500383F31188BFF36F8F64
:10139000BFF34F8F0A4A136801331360012B00D04B
:1013A0007047084B1B6813F0FF0FF9D04FF0500344
:1013B00083F31188BFF36F8FBFF34F8FFEE700BF3A
:1013C0000C00002004ED00E0094B1B6843B94FF00E
:1013D000500383F31188BFF36F8FBFF34F8FFEE786
:1013E000013B034A13600BB983F31188704700BFB8
:1013F0000C000020000000000000000000000000C1
:10140000EFF30980BFF36F8F154B1A681EF0100FB2
:1014100008BF20ED108A20E9F04F10604DF8043D20
:101420004FF0500080F31188BFF34F8FBFF36F8FE1
:1014300000F0D4FB4FF0000080F3118808BC19685D
:101440000868B0E8F04F1EF0100F08BFB0EC108A2B
:1014500080F30988BFF36F8F704700BFAFF3008040
:101460004C3C002008B54FF0500383F31188BFF3C4
:101470006F8FBFF34F8F00F043FA18B1034B4FF05B
:1014800080521A60002383F3118808BD04ED00E048
:10149000064B1B68064AA2FB03239B09013B054A36
:1014A0001360054B07221A60704700BF0800002038
:1014B000D34D621014E000E010E000E0314B1A68F8
:1014C000314B9A420DD02F4B1A68304B9A4211D1B2
:1014D0004FF0500383F31188BFF36F8FBFF34F8F2B
:1014E000FEE74FF0500383F31188BFF36F8FBFF314
:1014F0004F8FFEE700B583B0254B1A78D2B2019228
:10150000FF221A701B78DBB28DF803309DF8033090
:1015100003F050031F4A13701F4B07221A609DF8F7
:10152000033013F0800F0AD01B4A1368013B13608D
:101530009DF803305B00DBB28DF80330EFE7164A0D
:1015400013681B0203F4E0631360019BDBB2104AD3
:101550001370124B1A6842F470021A601A6842F053
:1015600070421A60FFF794FF0D4B00221A60FFF7DC
:10157000D3FE0C4A136843F040431360FFF7BCFEF0
:10158000FFF7A0FE00ED00E071C20F4170C20F41F5
:1015900000E400E0443C0020483C002020ED00E056
:1015A0000C00002034EF00E0084B1B681B683BB1C7
:1015B000064B1B68DB68DB685A68054B1A6070478E
:1015C000034B4FF0FF321A60704700BF503C0020C1
:1015D000283D002010B50446006BFFF73BFE204677
:1015E000FFF738FE10BD2DE9F04780469946089D6B
:1015F000099F0A9C266B02F18042013A06EB8206A3
:1016000026F0070600230F2B07D8C85CE21882F8E3
:101610003400CA5C0AB10133F5E7002384F8433093
:10162000062D00D90625E56265644FF0000AC4F86E
:1016300048A0201D00F039FB04F1180000F035FB34
:101640002461C5F10705A5616462C4F84CA084F863
:1016500050A04A4641463046FFF768FE206007B179
:101660003C60BDE8F087000038B5002407E004EBDB
:10167000840293000E48184400F00CFB0134062C41
:10168000F5D90C4D284600F005FB0B4C204600F028
:1016900001FB0A4800F0FEFA094800F0FBFA09488D
:1016A00000F0F8FA084B1D60084B1C6038BD00BF05
:1016B000583C0020FC3C0020103D0020303D002024
:1016C0005C3D0020483D0020503C0020543C002060
:1016D00010B50446FFF756FE204A13680133136025
:1016E0001F4B1B685BB11F4B1B686BB91C4B1B6806
:1016F000DA6AE36A9A4207D8194B1C6004E0184B77
:101700001C601368012B26D0174A1368013313603D
:10171000E36A01229A401549086802430A6003EB14
:1017200083039A00211D1248104400F0C1FAFFF70C
:101730004BFE0C4B1B686BB1094B1B68DA6AE36A02
:101740009A4207D20B4B4FF080521A60BFF34F8F73
:10175000BFF36F8F10BDFFF787FFD5E7E43C002094
:101760004C3C0020443D0020F43C0020F83C00208C
:10177000583C002004ED00E070B504460E461D4BB9
:101780001D681D4B1868043000F0B8FA50B91A4BA8
:101790001B68DA6A012303FA02F218490B6823EA8C
:1017A00002030B60B4F1FF3F13D02C44124B1B68B3
:1017B0005C60A54216D8124B18680F4B19680431AB
:1017C00000F082FA0F4B1B68A34212D90D4B1C602C
:1017D0000FE0002EE9D0084B196804310A4800F0E8
:1017E00067FA06E0094B1868034B1968043100F0EA
:1017F0006BFA70BD703D00204C3C0020F83C00208E
:10180000503C0020283D0020483D0020543C002052
:101810002DE9F04385B00746884615469946900065
:10182000FFF794FCF8B106465420FFF78FFC0446FE
:10183000A8B10663D4B10023039302940D9B0193D6
:101840000C9B00934B462A4641463846FFF7CBFE99
:101850002046FFF73DFF012005B0BDE8F08330468C
:10186000FFF7F8FCE6E74FF0FF30F5E74FF0FF3009
:10187000F2E7000000B583B0174B019300230093FB
:10188000802216491648FFF7C3FF012805D0B0F1A2
:10189000FF3F17D003B05DF804FB4FF0500383F314
:1018A0001188BFF36F8FBFF34F8F0E4B4FF0FF3296
:1018B0001A600D4B01221A600C4B00221A60FFF7D0
:1018C000FDFDE7E74FF0500383F31188BFF36F8FFF
:1018D000BFF34F8FFEE700BF243D0020801E0008AD
:1018E000B51B0008283D0020443D0020703D00202D
:1018F000024A136801331360704700BFF03C0020B8
:10190000F8B53A4B1B68002B64D1394B1D68013583
:101910001D60C5B9374B1B681B6843B14FF05003BE
:1019200083F31188BFF36F8FBFF34F8FFEE7314A08
:101930001168314B186810601960304A1368013320
:101940001360FFF731FE2E4B1B68AB4238D90024E1
:101950002C4B1B68DB6A03EB83039A002A4B9B58D2
:10196000012B3CD901243AE00124224B1B681B685F
:1019700043B3204B1B68DB68DE6873689D4226D347
:10198000371D384600F0BAF9B36A1BB106F11800EA
:1019900000F0B4F9F36A01229A401C490868024336
:1019A0000A6003EB83039A0039461748104400F09D
:1019B0007FF9F26A134B1B68DB6A9A42D4D2D4E7F0
:1019C0000024D2E70E4B4FF0FF321A60C0E70C4AFA
:1019D0001360BDE70E4A13680133136000240D4BFA
:1019E0001B6803B101242046F8BD00BFF03C002075
:1019F000703D0020503C0020543C00202C3D002035
:101A0000283D00204C3C0020583C0020F83C0020A1
:101A1000EC3C0020743D002038B5334B1B6843B9C3
:101A20004FF0500383F31188BFF36F8FBFF34F8FD5
:101A3000FEE7FFF7A7FC2C4B1A68013A1A601B68F7
:101A4000002B4DD1294B1B6823B90024FFF7BCFCA8
:101A5000204638BD0024264B1B681BB3244BDB6893
:101A6000DC6804F1180000F049F9251D284600F053
:101A700045F9E36A01229A401E49086802430A6058
:101A800003EB83039A0029461B48104400F010F929
:101A9000E26A1A4B1B68DB6A9A42DCD3184B0122BC
:101AA0001A60D8E70CB1FFF77FFD164B1C6854B1E4
:101AB000FFF726FF10B1124B01221A60013CF7D14B
:101AC000104B00221A600E4B1B685BB10E4B4FF09F
:101AD00080521A60BFF34F8FBFF36F8F0124B5E7B9
:101AE0000024B3E70024B1E7F03C0020E43C0020F0
:101AF000303D0020F83C0020583C00204C3C0020A9
:101B0000743D0020EC3C002004ED00E010B5A8B1CD
:101B100004460F4B1B6843B14FF0500383F3118809
:101B2000BFF36F8FBFF34F8FFEE7FFF7E1FE00219A
:101B30002046FFF721FEFFF76FFF38B9054B4FF046
:101B400080521A60BFF34F8FBFF36F8F10BD00BF7D
:101B5000F03C002004ED00E0134B1B6813B310B5FC
:101B6000FFF7C6FE114B1C68FFF756FF24B90E4B5A
:101B70001B68002BF4D110BDFFF704FC0B4BDB6896
:101B8000DC68201D00F0BAF8094A1368013B1360B5
:101B9000054A1368013B1360FFF716FC2046FFF768
:101BA00019FDE4E7704700BFE83C00205C3D0020E1
:101BB000E43C002008B5FFF7CFFF064B1B68012B64
:101BC000F9D9054B4FF080521A60BFF34F8FBFF326
:101BD0006F8FF0E7583C002004ED00E0204B1B68BD
:101BE0001BB1204B01221A6070471E4B00221A6065
:101BF0001D4B1B68B3FA83F3DBB2C3F11F0303EB86
:101C000083018A0019498A5842B94FF0500383F37F
:101C10001188BFF36F8FBFF34F8FFEE710B41348E7
:101C20009A00D418A10001444C6864684C601A44BE
:101C300091000831084484420BD003EB83039A00DF
:101C40000A4B13445B68DA68094B1A605DF8044B71
:101C5000704761680548142202FB03025160ECE7FB
:101C6000F03C0020743D0020F83C0020583C00204F
:101C70004C3C0020054B1B6833B1054B1B680BB176
:101C8000002070470220704701207047443D00202B
:101C9000F03C002000F1080343604FF0FF32826007
:101CA000C360036100230360704700230361704732
:101CB00043684B609A688A609A68516099600861CD
:101CC000036801330360704730B40D68B5F1FF3F1E
:101CD00002D000F1080202E0026904E01A465368EB
:101CE0001C68AC42FAD953684B6099608A605160B5
:101CF000086103680133036030BC704703694268C0
:101D0000816891608268416851605A68824205D05A
:101D100000220261186801381860704782685A60B2
:101D2000F6E7842801D0033070470020704708B5DB
:101D3000FFF7A0FD002008BDF0B585B00F46446850
:101D400005680669B0F90800FFF7EBFF03AB0193E4
:101D500000903B46B2B229462046FFF759FD0128C4
:101D600002D1039805B0F0BD0020FBE708B503469B
:101D700000B901231846FFF7C9FE002008BD08B5C9
:101D8000FFF778FF012801D0FFF76CFB08BD0000CA
:101D9000DFF834D0002103E00C4B5B584350043192
:101DA0000B480C4B42189A42F6D30B4A02E0002330
:101DB00042F8043B094B9A42F9D3FFF743F900F08C
:101DC00011F8FEF7EBFB704700000220981E000898
:101DD000000000201000002010000020803D0020A6
:101DE000FEE7000070B50D4E0D4CA41BA41000259D
:101DF000A54209D10B4E0C4C00F018F8A41BA410FE
:101E00000025A54205D170BD56F82530984701350B
:101E1000EEE756F8253098470135F2E7901E0008A6
:101E2000901E0008901E0008941E0008F8B500BF20
:101E3000F8BC08BC9E467047F8B500BFF8BC08BCAB
:041E40009E46704703
:101E4400641E00087D060008000000000000000079
:101E5400800000005372632F6D61696E2E63000071
:101E640064656661756C745461736B0000000000F6
:101E740000000000010203040607080949444C4518
:041E8400000000005A
:081E880078E3FF7F0100000078
:041E9000B501000890
:041E940091010008B0
:101E980001000000100000000024F400AAAAAAAA69
:0400000508001D9141
:00000001FF
